:040000000BEF00F012
:100008003482FACF01F0FBCF02F0E2ED01F0D1EF3C
:1000180002F0ECEC02F0000E1C6E000E1B6E000EDF
:100028001E6E000E1D6E000E196E000E186E010E6B
:10003800176E000E166E010EB3EC02F01A6E070E64
:100048001A18D8A407D01750D8A402D0010E01D08E
:10005800000E176E1750D8B43AD1000ED76E060EA0
:10006800D66E0B0E1A18D8A407D01650D8A402D0F2
:10007800010E01D0000E166E1650D8B48ED00E0E9A
:100088001A18D8A40CD01D4A1E2A3C0E1D181E1082
:10009800D8A414D0000E1E6E000E1D6E0FD00D0ECB
:1000A8001A18D8A40BD01D501E10D8A404D0000EC6
:1000B8001E6E3C0E1D6E1D06D8A01E06184A192A73
:1000C800195045E1320E185CD8B041D01DC00FF070
:1000D8001EC010F0000E126E0A0E116E92EC02F0A5
:1000E8001F0E0F24D96E000E1020DA6EDF50336E0B
:1000F8001DC00FF01EC010F0000E126E0A0E116E19
:1001080069EC02F01F0E0F24D96E000E1020DA6E73
:10011800DF50326E1BC00FF01CC010F0000E126EC4
:100128000A0E116E92EC02F01F0E0F24D96E000E0B
:100138001020DA6EDF50316E1BC00FF01CC010F0BB
:10014800000E126E0A0E116E69EC02F028D1640ED0
:1001580018181910D8B48ED0000E336E000E326EF7
:100168001BC00FF01CC010F0000E126E0A0E116EAC
:1001780092EC02F01F0E0F24D96E000E1020DA6EDA
:10018800DF50316E1BC00FF01CC010F0000E126E55
:100198000A0E116E69EC02F002D10E0E1A18D8A4DC
:1001A8000CD01B4A1C2A180E1B181C10D8A414D0DB
:1001B800000E1C6E000E1B6E0FD00D0E1A18D8A460
:1001C8000BD01B501C10D8A404D0000E1C6E180EA7
:1001D8001B6E1B06D8A01C06184A192A195045E19F
:1001E800320E185CD8B041D01DC00FF01EC010F000
:1001F800000E126E0A0E116E92EC02F01F0E0F2402
:10020800D96E000E1020DA6EDF50336E1DC00FF06D
:100218001EC010F0000E126E0A0E116E69EC02F08C
:100228001F0E0F24D96E000E1020DA6EDF50326ECA
:100238001BC00FF01CC010F0000E126E0A0E116EDB
:1002480092EC02F01F0E0F24D96E000E1020DA6E09
:10025800DF50316E1BC00FF01CC010F0000E126E84
:100268000A0E116E69EC02F09AD0640E1818191073
:10027800D8A405D0000E196E000E186E98D01DC0B7
:100288000FF01EC010F0000E126E0A0E116E92ECE6
:1002980002F01F0E0F24D96E000E1020DA6EDF5008
:1002A800336E1DC00FF01EC010F0000E126E0A0E45
:1002B800116E69EC02F01F0E0F24D96E000E10208B
:1002C800DA6EDF50326E000E316E000E6FD02E5097
:1002D8002F10D8B424D0000E2F6E000E2E6E1D06DF
:1002E800D8A01E061E5004E13C0E1D5CD8A017D0F5
:1002F800000E1E6E3B0E1D6E1B06D8A01C061C5061
:1003080004E1650E1B5CD8A00AD0010E176E000E22
:100318001C6E000E1B6E000E1E6E000E1D6E1DC0A4
:100328000FF01EC010F0000E126E0A0E116E92EC45
:1003380002F01F0E0F24D96E000E1020DA6EDF5067
:10034800336E1DC00FF01EC010F0000E126E0A0EA4
:10035800116E69EC02F01F0E0F24D96E000E1020EA
:10036800DA6EDF50326E1BC00FF01CC010F0000EAA
:10037800126E0A0E116E92EC02F01F0E0F24D96E47
:10038800000E1020DA6EDF50316E1BC00FF01CC05B
:1003980010F0000E126E0A0E116E69EC02F01F0EBC
:1003A8000F24D96E000E1020DA6EDF50306E300E3A
:1003B8000F6E000E106E3DEC02F03DD60600E9CF40
:1003C80003F0EACF04F0E1CF05F0E2CF06F0D9CF91
:1003D80007F0DACF08F0F3CF09F0F4CF0AF0F6CF40
:1003E8000BF0F7CF0CF0F8CF0DF0F5CF0EF0F2A42C
:1003F80022D0080ED624D66E000ED720D76E010E56
:100408002A26000E2B222C222D22210E2A1812E138
:100418004E0E2B182C102D10D8A40CD0000E2A6EBE
:10042800000E2B6E000E2C6E000E2D6E000E2F6E21
:10043800010E2E6EF2940EC0F5FF0DC0F8FF0CC031
:10044800F7FF0BC0F6FF0AC0F4FF09C0F3FF08C0AE
:10045800DAFF07C0D9FF06C0E2FF05C0E1FF04C00C
:10046800EAFF03C0E9FF02C0FBFF01C0FAFF3492B4
:100478001100000E156E030E156401D01200155000
:10048800010DF3500F24D96EF4501020DA6EDF50AE
:10049800836E15C011F0010E126E112A02D0D89089
:1004A8001236112EFCD78050F00B1210806E030EFE
:1004B800146EE80E136E1306D8A014061328FBE179
:1004C8001428D8A4F8D7152AD6D7000E146E000E13
:1004D800136E11501210D8B41CD0010E156E04D032
:1004E800D89011361236152A12AEFAD7D89013368C
:1004F800143611500F5C12501058D8A005D0115066
:100508000F5E1250105A1380D89012321132152EE5
:10051800EDD713C00FF014C010F0120011501210D4
:10052800D8B418D0010E136E04D0D89011361236F4
:10053800132A12AEFAD711500F5C12501058D8A0D7
:1005480004D011500F5E1250105AD8901232113246
:10055800132EF1D70FC00FF010C010F012000F6E5D
:100568000F04D8A415D082500F0B0F0AD8B408D0A6
:100578002950D8B405D0000E296E82500F0B1200F6
:1005880082500F0B0F0AD8A406D0010E296E03D093
:100598000F50D8B4F2D7FF0E120000EE2AF00A0E60
:1005A800EE6AE806FDE10E0EF66E060EF76E000E18
:1005B800F86E00EE1FF010EE0BF00900F5CFEEFF1D
:1005C800E550E150FAE13490349200010DEF00F06B
:1005D800F28CFEEC02F0F5EC02F00DEC03F0F28E7A
:1005E8001200D59AD58E000ED76E060ED66EF294EE
:1005F800F28A1200000E956E9250F00B926E8050A7
:10060800F00B806E1200E721CB6B2D6EEE23EF6F9F
:0106180001E0
:08061A0094500F09946E1200C8
:00000001FF
