:040000007EEF17F088
:102EFC00000185EF17F00F0EC16E93921200000EB9
:102F0C00096E000E0A6E000E0B6E000E0C6EF40EA7
:102F1C000D6E010E0E6E000E0F6E000E106E000E7A
:102F2C00056E000E066E000E076E000E086E81EC2C
:102F3C0017F00D50095C0E500A580F500B581050DA
:102F4C000C58D8B002D081820AD00C500B100EE174
:102F5C00E80E095C030E0A58D8B008D08192010E15
:102F6C000926000E0A220B220C2208D0000E096E34
:102F7C00000E0A6E000E0B6E000E0C6E05C001F0FA
:102F8C0006C002F007C003F008C004F0052A000ECA
:102F9C0006220722082204500310021004E1640EDA
:102FAC00015CD8A0C6D782B00FD0E80E0D1806E190
:102FBC00030E0E180F101010D8B406D0010E0D26EB
:102FCC00000E0E220F22102282B20BD00D500E10CA
:102FDC000F101010D8B405D00D06000E0E5A0F5A53
:102FEC00105A000E056E000E066E000E076E000ED7
:042FFC00086E9FD7E5
:00000001FF
