:040000000BEF00F012
:100008002D82FACF01F0FBCF02F0E4ED00F0E2EF31
:1000180001F0000E176E0C0E186E17C00FF0106A64
:10002800000E126E0A0E116E7EEC01F0230E0F24E4
:10003800D96E000E1020DA6EDF50226E17C00FF056
:10004800106A000E126E0A0E116E3CEC01F0230EBF
:100058000F24D96E000E1020DA6EDF50216E18C002
:100068000FF0106A000E126E0A0E116E7EEC01F08F
:10007800230E0F24D96E000E1020DA6EDF50206E8A
:1000880018C00FF0106A000E126E0A0E116E3CECCA
:1000980001F0230E0F24D96E000E1020DA6EDF5007
:1000A8001F6E0AEC02F0780E1D181E10D8A455D049
:1000B800172A3B0E176408D0000E176E182A170E61
:1000C800186402D0000E186E000E1E6E000E1D6E13
:1000D80017C00FF0106A000E126E0A0E116E7EEC39
:1000E80001F0230E0F24D96E000E1020DA6EDF50B7
:1000F800226E17C00FF0106A000E126E0A0E116EF3
:100108003CEC01F0230E0F24D96E000E1020DA6E9D
:10011800DF50216E18C00FF0106A000E126E0A0E22
:10012800116E7EEC01F0230E0F24D96E000E102004
:10013800DA6EDF50206E18C00FF0106A000E126ED3
:100148000A0E116E3CEC01F0230E0F24D96E000E3E
:100158001020DA6EDF501F6EA6D71DA019D018C068
:100168000FF0106A000E126E0A0E116E7EEC01F08E
:10017800230E0F24D96E000E1020DA6EDF501009FE
:10018800206E1F0E0F6E000E106EB6EC01F08BD7AE
:1001980018C00FF0106A000E126E0A0E116E7EEC77
:1001A80001F0230E0F24D96E000E1020DA6EDF50F6
:1001B800206E1F0E0F6E000E106EB6EC01F073D796
:1001C8000600E9CF03F0EACF04F0E1CF05F0E2CF73
:1001D80006F0D9CF07F0DACF08F0F3CF09F0F4CF63
:1001E8000AF0F6CF0BF0F7CF0CF0F8CF0DF0F5CF03
:1001F8000EF0F2A41FD0080ED624D66E000ED7201B
:10020800D76E010E1926000E1A221B221C22390E47
:1002180019180FE11A041B101C10D8A40AD0000EDC
:10022800196E000E1A6E000E1B6E000E1C6E1D4A13
:100238001E2AF2940EC0F5FF0DC0F8FF0CC0F7FFA0
:100248000BC0F6FF0AC0F4FF09C0F3FF08C0DAFFCD
:1002580007C0D9FF06C0E2FF05C0E1FF04C0EAFFFE
:1002680003C0E9FF02C0FBFF01C0FAFF2D92110095
:10027800000E146E12AE06D0116C121ED8B0122ADF
:10028800010E146E10AE06D00F6C101ED8B0102AD6
:10029800010E141A000E166E000E156E1150121073
:1002A800D8B41CD0010E136E04D0D8901136123673
:1002B800132A12AEFAD7D8901536163611500F5C9D
:1002C80012501058D8A005D011500F5E1250105A75
:1002D8001580D89012321132132EEDD71450D8B49D
:1002E80004D0156C161ED8B0162A15C00FF016C00B
:1002F80010F01200000E146E10AE06D00F6C101E17
:10030800D8B0102A010E146E12AE04D0116C121E51
:10031800D8B0122A11501210D8B418D0010E136E8A
:1003280004D0D89011361236132A12AEFAD71150CB
:100338000F5C12501058D8A004D011500F5E125004
:10034800105AD89012321132132EF1D71450D8B453
:1003580004D00F6C101ED8B0102A0FC00FF010C0B8
:1003680010F01200000E156E030E156401D0120075
:100378001550010DF3500F24D96EF4501020DA6E89
:10038800DF50836E15C011F0010E126E112A02D0D3
:10039800D8901236112EFCD78050F00B1210806EB8
:1003A800030E146EE80E136E1306D8A01406132855
:1003B800FBE11428D8A4F8D7152AD6D700EE19F0EF
:1003C8000A0EEE6AE806FDE1380EF66E040EF76EC8
:1003D800000EF86E00EE23F010EE0AF00900F5CFDB
:1003E800EEFFE550E150FAE12D902D9200010DEF5E
:1003F80000F0D59AD58E000ED76E060ED66EF29402
:10040800F28AD596D590D592D58412000F0EC16E7A
:10041800FDEC01F013EC02F0F28CF28E1200000EEB
:10042800956E9250F00B926E8050F00B806E120019
:0A043800E721CB6B2D6EEE23EF6F72
:00000001FF
