:04000000B9EF14F050
:102908008EEC14F097EC14F01200E721CB6B2D6ECF
:10291800EE23EF6F000E956E9250F00B926E805082
:10292800F00B806E1200C08EC09AC088C096C0900E
:10293800C082C094C292C19AC198000EC46E000EA3
:10294800C36EC280120009C001F00AC002F0036A17
:102958008E0E046E000E056E8EEC15F001C009F0A7
:1029680002C00AF003C00BF012004B6A4A6A496AB7
:10297800486A120EF66E290EF76E000EF86E00EE1B
:102988003EF010EE0AF00900F5CFEEFFE550E150F9
:10299800FAE10001D2EF16F0076E07C003F0D890F5
:1029A8000336D8900336C250C30B0310C26EC282DE
:1029B800C2B2FED7C350C4CF03F0046A03C004F008
:1029C800036A0310056E0450066E05C001F006C0C8
:1029D80002F01200000E076E030E076401D0120009
:1029E8000750010DF3500124D96EF4500220DA6E1D
:1029F800DF50836E07C003F0010E046E032A02D075
:102A0800D8900436032EFCD78050F00B0410806E4B
:102A1800030E066EE80E056E0506D8A00606052804
:102A2800FBE10628D8A4F8D7072AD6D712501310E6
:102A380014101510D8B424D0010E166E06D0D890F4
:102A48001236133614361536162A15AEF8D7125024
:102A58000E5C13500F581450105815501158D8A028
:102A680008D012500E5E13500F5A1450105A1550B9
:102A7800115AD8901532143213321232162EE7D763
:102A88000EC00EF00FC00FF010C010F011C011F002
:102A98001200000E096E000E0A6E000E0B6E000E7C
:102AA8000C6E0550061007100810D8B42AD0010E75
:102AB8000D6E06D0D89005360636073608360D2A2C
:102AC80008AEF8D7D89009360A360B360C360550BA
:102AD800015C065002580750035808500458D8A003
:102AE80009D00550015E0650025A0750035A085093
:102AF800045A0980D89008320732063205320D2E62
:102B0800E1D709C001F00AC002F00BC003F00CC005
:102B180004F012000450D8B405D00150021003107C
:102B2800D8A40CD0000E016E000E026E000E036ECB
:102B38001200042AD890033202320132000E011426
:102B4800066E000E0214076EFE0E0314086E065081
:102B580007100810D8B40CD0ECD7042A010E0126AF
:102B6800000E0222000E0322D890033202320132F4
:102B7800000E0114066E000E0214076EFF0E0314F9
:102B8800086E065007100810D8B406D0E6D7040619
:102B9800D89001360236033602BE03D0020E046016
:102BA800F6D704A0029ED8900432045003120550B0
:102BB800D8A4038E01C001F002C002F003C003F0E4
:102BC80012000EC012F0136A146A0D34123601E3B3
:102BD80013801250196E1950D8A407D0000E0C6E2D
:102BE800000E0D6E000E0E6E120011C012F0136A68
:102BF800146A1034123601E3138012501A6E1A50F8
:102C0800D8A407D0000E0C6E000E0D6E000E0E6ECE
:102C18001200000E166E000E176E000E186E1A5077
:102C2800890F195E0EC01AF011501A1A800E1A1662
:102C38000D8EFF0E0C16FF0E0D16000E0E16108EC2
:102C4800FF0E0F16FF0E1016000E1116180E156E39
:102C5800D8901636173618360F500C5C10500D5891
:102C680011500E58D8A007D00F500C5E10500D5AB6
:102C780011500E5A1680D8900C360D360E36152E79
:102C8800E7D716C001F017C002F018C003F019C04A
:102C980004F01AC005F08EEC15F001C00CF002C06B
:102CA8000DF003C00EF012001DC01FF0206A216A4B
:102CB8001C341F3601E320801F50296E2950D8A4E8
:102CC80009D0000E1B6E000E1C6E000E1D6E000E4D
:102CD8001E6E1200170E1F6E1BC020F01CC021F0C4
:102CE8001DC022F01F28236E04D0D8902232213232
:102CF8002032232EFAD72050246E1C8EFF0E1B166E
:102D0800FF0E1C16000E1D161B50256E1C50266E3D
:102D18001D50276E286A8E0E295E29AE16D02950BE
:102D2800800A8F0FD8B009D0000E1B6E000E1C6EE3
:102D3800000E1D6E000E1E6E1200D890283227322B
:102D480026322532293EF9D715D0170E29640FD01F
:102D5800000E1B6E000E1C6E000E1D6E000E1E6E09
:102D68001200D890253626362736283629062950C7
:102D7800D8A4F7D72450D8B408D0281E271E261E5A
:102D8800256C000E26222722282225C01BF026C0EB
:102D98001CF027C01DF028C01EF0120084EC14F0AF
:102DA8000F0E3A6E270E3B6E000E3C6E000E3D6E07
:102DB800000E2E6E000E2F6E000E306E000E316E5D
:102DC800000E326E000E336E000E346E000E356E3D
:102DD8000B0E366E000E376E000E386E000E396E12
:102DE80036C02AF037C02BF038C02CF039C02DF08F
:102DF800362A000E3722382239222D502C102B105B
:102E080004E10B0E2A5CD8A02FD0000E366E000EFF
:102E1800376E000E386E000E396EAE0E0F6E230E32
:102E2800106E410E116E040ED0EC14F001C009F0C2
:102E380002C00AF0A7EC14F009C00CF00AC00DF0AB
:102E48000BC00EF0E5EC15F00CC01BF00DC01CF02B
:102E58000EC01DF058EC16F01BC02EF01CC02FF051
:102E68001DC030F01EC031F032C02AF033C02BF044
:102E780034C02CF035C02DF0322A000E3322342213
:102E880035222A502E5C2B502F582C5030582D505C
:102E98003158D8B01ED0000E326E000E336E000EC0
:102EA800346E000E356E3A06000E3B5A3C5A3D5AB7
:102EB8003A280FE13B280DE13C280BE13D28D8A436
:102EC80008D00F0E3A6E270E3B6E000E3C6E000EB9
:102ED8003D6E3AC00EF03BC00FF03CC010F03DC054
:102EE80011F00A0E126E000E136E000E146E000E14
:102EF800156E1AEC15F03E0E0E24D96E000E0F203A
:102F0800DA6EDF504B6E0A0E056E000E066E000E6E
:102F1800076E000E086E3AC001F03BC002F03CC0DC
:102F280003F03DC004F04DEC15F001C00EF002C0F6
:102F38000FF003C010F004C011F00A0E126E000E5C
:102F4800136E000E146E000E156E1AEC15F03E0E80
:102F58000E24D96E000E0F20DA6EDF504A6E640E12
:102F6800056E000E066E000E076E000E086E3AC063
:102F780001F03BC002F03CC003F03DC004F04DEC52
:102F880015F001C00EF002C00FF003C010F004C02D
:102F980011F00A0E126E000E136E000E146E000E63
:102FA800156E1AEC15F03E0E0E24D96E000E0F2089
:102FB800DA6EDF50496E3AC001F03BC002F03CC007
:102FC80003F03DC004F0E80E056E030E066E000E19
:102FD800076E000E086E4DEC15F03E0E0124D96EFA
:102FE800000E0220DA6EDF50486E480E016E000EA9
:082FF800026EEEEC14F0F4D6B9
:00000001FF
