:04000000F9EF16F00E
:062DCE00F0EC16F012000B
:102DD500E721CB6B2D6EEE23EF6F40000E956E92C3
:102DE50050F00B926E8050F00B806E12002E6A2D03
:102DF5006A2C6A2B6AD50EF66E2D0EF76E000EF84C
:102E05006E00EE20F010EE0BF00900F5CFEEFFE5B9
:102E150050E150FAE100013CEF17F0000E076E0398
:102E25000E076401D012000750010DF3500124D99B
:102E35006EF4500220DA6EDF50836E07C003F00196
:102E45000E046E032A02D0D8900436032EFCD780D8
:102E550050F00B0410806E030E066EE80E056E052D
:102E650006D8A006060528FBE10628D8A4F8D7074A
:102E75002AD6D7E7EC16F0030E1C6E000E1D6E0069
:102E85000E1E6E000E1F6E020E146E000E156E00E5
:102E95000E166E000E176E010E186E000E196E00DE
:102EA5000E1A6E000E1B6E000E086E000E096E00E7
:102EB5000E0A6E000E0B6E000E0C6E000E0D6E00EF
:102EC5000E0E6E000E0F6E000E106E000E116E00CF
:102ED5000E126E000E136E0F500E100D1011E164E0
:102EE5000E0C5CD8B00DD02B0E016E000E026E10CC
:102EF500EC17F0010E0C26000E0D220E220F22EB10
:102F0500D7000E0C6E000E0D6E000E0E6E000E0F2D
:102F15006E200E1C24D96E000E1D20DA6EDF502E99
:102F25006E200E1424D96E000E1520DA6EDF502D9A
:102F35006E200E1824D96E000E1920DA6EDF502C83
:102F45006E200E0824D96E000E0920DA6EDF502B94
:102F55006E18C008F019C009F01AC00AF01BC00BA2
:102F6500F014C018F015C019F016C01AF017C01BE0
:102F7500F01CC014F01DC015F01EC016F01FC017C0
:102F8500F0090E1C181D101E101F10D8B407D00A0A
:102F95000E1C181D101E101F10D8A428D013501277
:102FA50010111013E1020E105CD8B00FD00A0E1CE0
:102FB5006E000E1D6E000E1E6E000E1F6E010E10B1
:102FC50026000E11221222132286D7000E106E0043
:102FD5000E116E000E126E000E136E10C01CF01155
:102FE500C01DF012C01EF013C01FF075D7010E1CD6
:0B2FF50026000E1D221E221F226ED798
:00000001FF
