:0400000095EF16F072
:102C640094500F09946E12000F0EC16E000E816E07
:102C7400000E936E32EC16F01200000E816E81503D
:102C8400056E066A076A086A05C001F006C002F00C
:102C940007C003F008C004F01200000E016E000E1D
:102CA400026E000E036E000E046ED8808136010E93
:102CB4000526000E0622072208221200000E016ECD
:102CC400000E026E000E036E000E046E010E052649
:102CD400000E062207220822D88081321200010E3B
:102CE4000526000E062207220822000E016E000EA1
:102CF400026E000E036E000E046E81508124816EFC
:102D04001200000E016E000E026E000E036E000E25
:102D1400046E010E0526000E062207220822D89012
:102D24008130816E120000EE01F0080EEE6AE806B2
:102D3400FDE1000EF66E300EF76E000EF86E09001F
:102D4400F5CF11F000014CEF17F0096E0904D8A477
:102D540015D082500F0B0F0AD8B408D01150D8B434
:102D640005D0000E116E82500F0B120082500F0B13
:102D74000F0AD8A406D0010E116E03D00950D8B49E
:102D8400F2D7FF0E12000B6E0E0E0B18D8A41DD036
:102D9400880E016E130E026E000E036E000E046E9A
:102DA4000106000E025A035A045A0128F9E10228C6
:102DB400F7E10328F5E10428D8A4F2D7000E816EC8
:102DC400000E0A6E010E096E12000D0E0B18D8A427
:102DD4001CD0880E016E130E026E000E036E000EE0
:102DE400046E0106000E025A035A045A0128F9E13E
:102DF4000228F7E10328F5E10428D8A4F2D7000E4D
:102E0400816E000E0A6E020EDED70B0E0B18D8A4CC
:102E14001CD0880E016E130E026E000E036E000E9F
:102E2400046E0106000E025A035A045A0128F9E1FD
:102E34000228F7E10328F5E10428D8A4F2D7AA0E62
:102E4400816E000E0A6E030EBED7070E0B18D8A4AF
:102E54001CD0880E016E130E026E000E036E000E5F
:102E6400046E0106000E025A035A045A0128F9E1BD
:102E74000228F7E10328F5E10428D8A4F2D70F0EBD
:102E8400816E000E0A6E040E9ED7000E0A6E000EAE
:102E9400096E1200000E106E010E0F6E36EC16F065
:102EA400010EA7EC16F00E6E0E50C5EC16F009C01C
:102EB4000CF00AC00DF00C500D10D8B414D0000E54
:102EC400056E000E066E000E076E000E086E05C03D
:102ED40001F006C002F007C003F008C004F00CC003
:102EE4000FF00DC010F0045003100DE1200E015C32
:102EF4004E0E0258D8B007D0010E0126000E022251
:102F040003220422CDD70F041010D8A447D00850B0
:102F14000710061007E1080E055CD8B003D04FEC8B
:102F240016F0BED708500710061004E1080E055C21
:102F3400D8A00BD008500710061007E1100E055C4E
:102F4400D8B003D071EC16F0ABD7085007100610B8
:102F540004E1100E055CD8A00BD008500710061031
:102F640007E1180E055CD8B003D060EC16F098D7D2
:102F740008500710061004E1180E055CD8A00BD009
:102F840008500710061007E1200E055CD8B003D0E6
:102F940083EC16F085D73FEC16F082D7020E0F189B
:102FA4001010D8A421D008500710061007E1080E0D
:102FB400055CD8B003D04FEC16F072D70850071058
:102FC400061004E1080E055CD8A00BD008500710C9
:102FD400061007E1100E055CD8B003D071EC16F0B2
:102FE4005FD73FEC16F05CD7000E016E000E026E48
:0D2FF400000E036E000E046E811E52D70108
:00000001FF
