:0400000056EF16F0B1
:102CAC000001E6EF16F0939081905EEC16F01200A6
:102CBC00C08EC09AC088C096C090C082C094C29288
:102CCC00C19AC198000EC46E000EC36EC280120071
:102CDC0009C001F00AC002F0036A8E0E046E000EE9
:102CEC00056E36EC17F001C009F002C00AF003C003
:102CFC000BF01200076E07C003F0D8900336D89083
:102D0C000336C250C30B0310C26EC282C2B2FED7CE
:102D1C00C350C4CF03F0046A03C004F0036A031069
:102D2C00056E0450066E05C001F006C002F01200DC
:102D3C000EAE16D00CC012F00DC013F00EC014F075
:102D4C00121E131E141E122A000E13221422000E21
:102D5C0012240C6E000E13200D6E800E14200E6EBD
:102D6C0011AE16D00FC012F010C013F011C014F039
:102D7C00121E131E141E122A000E13221422000EF1
:102D8C0012240F6E000E1320106E800E1420116E84
:102D9C00000E0C1A000E0D1A800E0E1A000E0F1AD1
:102DAC00000E101A800E111A0F500C5C10500D589A
:102DBC0011500E58D8B002D0D8901200D880120002
:102DCC00000E1C6E000E1B6E59EC16F0040E80ECFF
:102DDC0016F001C009F002C00AF06EEC16F009C042
:102DEC0018F00AC019F00BC01AF018C009F019C07D
:102DFC000AF01AC00BF09A0E0C6ECC0E0D6E420E31
:102E0C000E6E8DEC17F009C018F00AC019F00BC04B
:102E1C001AF01BC009F01CC00AF06EEC16F009C0C9
:102E2C000CF00AC00DF00BC00EF018C00FF019C05A
:102E3C0010F01AC011F09EEC16F0D8B002D08180C0
:102E4C0007D01C5008E10B0E1B5CD8B004D081904D
:102E5C001B4A1C2ABBD7000E1C6E000E1B6EB6D76D
:102E6C000450D8B405D0015002100310D8A40CD0D3
:102E7C00000E016E000E026E000E036E1200042A8C
:102E8C00D890033202320132000E0114066E000E8D
:102E9C000214076EFE0E0314086E0650071008107D
:102EAC00D8B40CD0ECD7042A010E0126000E022255
:102EBC00000E0322D890033202320132000E0114AC
:102ECC00066E000E0214076EFF0E0314086E0650F9
:102EDC0007100810D8B406D0E6D70406D8900136EF
:102EEC000236033602BE03D0020E0460F6D704A0ED
:102EFC00029ED8900432045003120550D8A4038EBD
:102F0C0001C001F002C002F003C003F012000BC0BC
:102F1C000FF0106A116A0A340F3601E310800F505B
:102F2C00166E1650D8A407D0000E096E000E0A6E4D
:102F3C00000E0B6E12000EC00FF0106A116A0D34E9
:102F4C000F3601E310800F50176E1750D8A407D01E
:102F5C00000E096E000E0A6E000E0B6E1200000EB3
:102F6C00136E000E146E000E156E1750890F165E40
:102F7C000BC017F00E50171A800E17160A8EFF0E84
:102F8C000916FF0E0A16000E0B160D8EFF0E0C16F0
:102F9C00FF0E0D16000E0E16180E126ED89013366C
:102FAC00143615360C50095C0D500A580E500B583F
:102FBC00D8A007D00C50095E0D500A5A0E500B5A6F
:102FCC001380D89009360A360B36122EE7D713C069
:102FDC0001F014C002F015C003F016C004F017C0C5
:102FEC0005F036EC17F001C009F002C00AF003C07E
:042FFC000BF01200C4
:00000001FF
