:0400000037EF17F0CF
:102D8C0094500F09946E12000F0EC16E000E816EDE
:102D9C00000E936EC6EC16F01200000E816E815080
:102DAC00056E066A076A086A05C001F006C002F0E3
:102DBC0007C003F008C004F01200000E016E000EF4
:102DCC00026E000E036E000E046E0506000E065A0F
:102DDC00075A085AD88081361200000E816E815035
:102DEC00016E026A036A046A0F0E056E000E066E0F
:102DFC00000E076E000E086E1200000E016E000E23
:102E0C00026E000E036E000E046E010E0526000EFF
:102E1C00062207220822D88081321200000E016E91
:102E2C00000E026E000E036E000E046E0506000E00
:102E3C00065A075A085A81508124816E1200000EDE
:102E4C00016E000E026E000E036E000E046E010E7B
:102E5C000526000E062207220822D8908130816EAA
:102E6C00120000EE01F0080EEE6AE806FDE1000E1D
:102E7C00F66E300EF76E000EF86E0900F5CF0FF0FF
:102E8C0000018CEF17F0096E0904D8A415D08250FC
:102E9C000F0B0F0AD8B408D00F50D8B405D0000EC1
:102EAC000F6E82500F0B120082500F0B0F0AD8A41A
:102EBC0006D0010E0F6E03D00950D8B4F2D7FF0E16
:102ECC0012000B6E0E0E0B18D8A41BD0700E016ED8
:102EDC00170E026E000E036E000E046E0106000E3D
:102EEC00025A035A045A0128F9E10228F7E103288F
:102EFC00F5E10428D8A4F2D7000E0A6E010E096E73
:102F0C001200000E0A6E000E096E1200CAEC16F0CA
:102F1C00010E49EC17F00C6E0C5067EC17F00950D1
:102F2C000A10D8B411D0000E016E000E026E000E05
:102F3C00036E000E046E0D500E10D8A402D0010EBC
:102F4C0001D0000E0D6E0E6A045003100DE1100E30
:102F5C00015C270E0258D8B007D0010E0126000ED6
:102F6C00022203220422D4D70D500E10D8A421D053
:102F7C0008500710061007E1080E055CD8B003D006
:102F8C0003EC17F0C5D708500710061004E1080E23
:102F9C00055CD8A00BD008500710061007E1100EE6
:102FAC00055CD8B003D025EC17F0B2D7D3EC16F0F3
:102FBC00AFD708500710061007E1080E055CD8B013
:102FCC0003D014EC17F0A4D708500710061004E136
:102FDC00080E055CD8A00BD008500710061007E1AE
:102FEC00100E055CD8B003D0E3EC16F091D7F3ECDF
:052FFC0016F08ED70164
:00000001FF
