:040000000BEF00F012
:100008001582FACF01F0FBCF02F00DED00F09FEF63
:1000180000F00600E9CF03F0EACF04F0E1CF05F0E5
:10002800E2CF06F0D9CF07F0DACF08F0F3CF09F026
:10003800F4CF0AF0F6CF0BF0F7CF0CF0F8CF0DF0B5
:10004800F5CF0EF0F2A419D0080ED624D66E000E05
:10005800D720D76E0F4A102A210E0F180DE14E0E29
:100068001018D8A409D0000E106E000E0F6E81B0C3
:1000780002D0818001D08190F2949EA017D0250EE5
:10008800CE24CE6E0D0ECF20CF6E114A122A510EFD
:1000980011181210D8A409D0000E126E000E116E9D
:1000A80081B202D0818201D081929E909EA216D008
:1000B800CC50070FCC6E134A142A210E13180DE1E9
:1000C8004E0E1418D8A409D0000E146E000E136E2C
:1000D80081B402D0818401D081949E920EC0F5FF34
:1000E8000DC0F8FF0CC0F7FF0BC0F6FF0AC0F4FF05
:1000F80009C0F3FF08C0DAFF07C0D9FF06C0E2FF56
:1001080005C0E1FF04C0EAFF03C0E9FF02C0FBFF2E
:1001180001C0FAFF15921100F28C000E816E000EDC
:10012800936E0F0EC16EB3EC00F0AAEC00F0BCECBD
:1001380000F0F28E1200146A136A126A116A106AC9
:100148000F6A159015920001C2EF00F0CD80CD9294
:100158000D0ECF6E720ECE6E9E909D801200D59AB7
:10016800D58E000ED76E060ED66EF294F28A120065
:10017800CA84060ECC6E9E929D82120090EC00F00E
:02018800FFD79F
:00000001FF
