:040000002CEF17F0DA
:102E4A000F0EC16E000E936E000E816E120000EE20
:102E5A0001F0080EEE6AE806FDE100018EEF17F0B8
:102E6A00000E016E000E026E000E036E000E046E5E
:102E7A00D8808136010E0526000E06220722082276
:102E8A001200000E016E000E026E000E036E000E9E
:102E9A00046ED8808132010E0526000E0622072212
:102EAA0008221200000E016E000E026E000E036E62
:102EBA00000E046E81508124816E010E0526000EDB
:102ECA000622072208221200000E016E000E026E70
:102EDA00000E036E000E046ED8908130816E010ED2
:102EEA000526000E0622072208221200000E016E95
:102EFA00000E026E000E036E000E046E000E816E4E
:102F0A00000E056E000E066E000E076E000E086EAD
:102F1A00120025EC17F004BE09D0045003100DE18D
:102F2A00500E015CC30E0258D8B007D0010E01261C
:102F3A00000E022203220422EED708BE0DD008BEDC
:102F4A0008D008500710061007E1080E055CD8B033
:102F5A0003D035EC17F0DFD708BE15D0085007109C
:102F6A00061004E1080E055CD8A00DD008BE08D0F2
:102F7A0008500710061007E1100E055CD8B003D000
:102F8A0057EC17F0C8D708BE15D00850071006101E
:102F9A0004E1100E055CD8A00DD008BE08D0085078
:102FAA000710061007E1180E055CD8B003D046ECEE
:102FBA0017F0B1D708BE15D008500710061004E163
:102FCA00180E055CD8A00DD008BE08D0085007100E
:102FDA00061007E1200E055CD8B003D069EC17F0A3
:102FEA009AD7200E0518061007100810D8A493D7F0
:062FFA007BEC17F090D7FC
:00000001FF
