:040000000BEF00F012
:100008003882FACF01F0FBCF02F098ED01F0B7EF9C
:1000180002F0D2EC02F0000E196E000E186E000EFF
:100028001E6E000E1D6E000E206E000E1F6E010E5D
:100038001B6E000E1C6E000E1A6E010E99EC02F07B
:10004800216E1B50D8B481D030043110D8A409D007
:10005800000E316E000E306E3550100A356E184A9B
:10006800192A19BE26D0195004E13C0E185CD8A0F4
:1000780020D0000E196E000E186E1F4A202A20BECE
:1000880018D0205004E13C0E1F5CD8A012D01D4AA5
:100098001E2A000E206E000E1F6E1EBE0AD01E50B5
:1000A80004E1180E1D5CD8A004D0000E1E6E000ED0
:1000B8001D6E1DC00FF01EC010F0000E126E0A0E4D
:1000C800116EE9EC01F0220E0F24D96E000E1020FB
:1000D800DA6EDF50346E3550100B356E1DC00FF0E0
:1000E8001EC010F0000E126E0A0E116E2BEC02F0FC
:1000F800220E0F24D96E000E1020DA6EDF50351054
:10010800356E1FC00FF020C010F0000E126E0A0EE0
:10011800116E2BEC02F0220E0F24D96E000E102067
:10012800DA6EDF50376E1FC00FF020C010F0000EDF
:10013800126E0A0E116EE9EC01F0220E0F24D96E30
:10014800000E1020DA6EDF50366E070E2118D8A484
:1001580007D01B50D8A402D0010E01D0000E1B6E90
:100168000E0E2118D8B408D00D0E2118D8B404D01A
:100178000B0E2118D8A45BD01B50D8A458D00B0E56
:100188002118D8A407D01C50D8A402D0010E01D041
:10019800000E1C6E0E0E2118D8A406D01C04D8A47C
:1001A80003D01D4A1E2A1FD00E0E2118D8A406D02F
:1001B8001C50D8A403D01F4A202A15D00D0E211890
:1001C800D8A407D01C04D8A404D01D06D8A01E06A5
:1001D8000AD00D0E2118D8A406D01C50D8A403D0DC
:1001E8001F06D8A020061EBE0AD01E5004E1180E15
:1001F8001D5CD8A004D0000E1E6E000E05D01EAEE9
:1002080004D0000E1E6E170E1D6E20BE0AD02050A0
:1002180004E13C0E1F5CD8A004D0000E206E000E36
:1002280005D020AE04D0000E206E3B0E1F6E3004A9
:100238003110D8A40ED01B50D8A40BD0000E316EAC
:10024800000E306E1A50D8A402D0010E01D0000E54
:100258001A6E1A50D8A44FD01B50D8A44CD01DC029
:100268000FF01EC010F0000E126E0A0E116EE9ECAF
:1002780001F0220E0F24D96E000E1020DA6EDF5026
:10028800346E3550100B356E1DC00FF01EC010F0C7
:10029800000E126E0A0E116E2BEC02F0220E0F24C5
:1002A800D96E000E1020DA6EDF503510356E1FC083
:1002B8000FF020C010F0000E126E0A0E116E2BEC1B
:1002C80002F0220E0F24D96E000E1020DA6EDF50D5
:1002D800376E1FC00FF020C010F0000E126E0A0E0D
:1002E800116EE9EC01F0220E0F24D96E000E1020D9
:1002F800DA6EDF50366E1A04D8A40FD01B50D8A47B
:100308000CD01C50D8A405D0000E376E000E366EE7
:1003180004D0000E346E000E356E340E0F6E000ED3
:10032800106E63EC02F089D60600E9CF03F0EACF3D
:1003380004F0E1CF05F0E2CF06F0D9CF07F0DACF2D
:1003480008F0F3CF09F0F4CF0AF0F6CF0BF0F7CFAF
:100358000CF0F8CF0DF0F5CF0EF0F2A418D0080E7F
:10036800D624D66E000ED720D76E324A332A110E05
:1003780032180CE1270E3318D8A408D0000E336EBB
:10038800000E326E000E316E010E306EF2940EC009
:10039800F5FF0DC0F8FF0CC0F7FF0BC0F6FF0AC051
:1003A800F4FF09C0F3FF08C0DAFF07C0D9FF06C091
:1003B800E2FF05C0E1FF04C0EAFF03C0E9FF02C095
:1003C800FBFF01C0FAFF38921100000E146E12AE46
:1003D80006D0116C121ED8B0122A010E146E10AE7F
:1003E80006D00F6C101ED8B0102A010E141A000E79
:1003F800166E000E156E11501210D8B41CD0010ED6
:10040800136E04D0D89011361236132A12AEFAD7CA
:10041800D8901536163611500F5C12501058D8A0C7
:1004280005D011500F5E1250105A1580D890123214
:100438001132132EEDD71450D8B404D0156C161EF3
:10044800D8B0162A15C00FF016C010F01200000E12
:10045800146E10AE06D00F6C101ED8B0102A010E04
:10046800146E12AE04D0116C121ED8B0122A11509C
:100478001210D8B418D0010E136E04D0D8901136CB
:100488001236132A12AEFAD711500F5C12501058B8
:10049800D8A004D011500F5E1250105AD8901232C2
:1004A8001132132EF1D71450D8B404D00F6C101E8B
:1004B800D8B0102A0FC00FF010C010F01200000EB4
:1004C800176E030E176401D012001750010DF35078
:1004D8000F24D96EF4501020DA6EDF50836E17C0E7
:1004E80011F0010E126E112A02D0D8901236112E78
:1004F800FCD78050F00B1210806EE80E136E030EBE
:10050800146E000E156E000E166E1306000E145AA9
:10051800155A165A1328F9E11428F7E11528F5E1B8
:100528001628D8A4F2D7172ACCD70F6E0F04D8A450
:1005380015D082500F0B0F0AD8B408D02F50D8B45A
:1005480005D0000E2F6E82500F0B120082500F0B39
:100558000F0AD8A406D0010E2F6E03D00F50D8B4BE
:10056800F2D70F0E120000EE30F0080EEE6AE80621
:10057800FDE1DE0EF66E050EF76E000EF86E00EE6B
:1005880022F010EE0EF00900F5CFEEFFE550E15035
:10059800FAE13890389200010DEF00F0DDEC02F03E
:1005A800E6EC02F0F6EC02F00F0EC16EF28CF28E61
:1005B8001200D59AD58E000ED76E060ED66EF2941E
:1005C800F28A1200000E956E9250F00B926E8050D7
:1005D800F00B806E1200E721CB6B2D6EEE23EF6FD0
:0C05E8000000100194500F09946E1200E6
:00000001FF
