:040000000BEF00F012
:100008001C82FACF01F0FBCF02F00DED00F0BFEF3C
:1000180000F00600E9CF03F0EACF04F0E1CF05F0E5
:10002800E2CF06F0D9CF07F0DACF08F0F3CF09F026
:10003800F4CF0AF0F6CF0BF0F7CF0CF0F8CF0DF0B5
:10004800F5CF0EF0F2A418D0080ED624D66E000E06
:10005800D720D76E1A4A1B2A210E1A180CE14E0E09
:100068001B18D8A408D0000E1B6E000E1A6E000EC6
:10007800186E000E176EF2940EC0F5FF0DC0F8FF53
:100088000CC0F7FF0BC0F6FF0AC0F4FF09C0F3FF6E
:1000980008C0DAFF07C0D9FF06C0E2FF05C0E1FFCC
:1000A80004C0EAFF03C0E9FF02C0FBFF01C0FAFF7A
:1000B8001C921100D5EC00F0010E146EF40E136EB4
:1000C800010EA1EC00F0106E1050116E126A0E0EA7
:1000D80011181210D8A408D0030E146EE80E136E6F
:1000E800000E186E010E176E17501810D8A408D0FD
:1000F800000ED76E080ED66E000E146E640E136EC8
:100108001350155C1650800A106E1450800A10584F
:10011800D8B002D0818209D016BE06D0E80E155C90
:10012800030E1658D8B004D08192154A162AC8D79B
:10013800000E166E000E156EC3D70F6E0F04D8A4EE
:1001480015D082500F0B0F0AD8B408D01950D8B464
:1001580005D0000E196E82500F0B120082500F0B43
:100168000F0AD8A406D0010E196E03D00F50D8B4C8
:10017800F2D7FF0E12001B6A1A6AE60EF66E010E1F
:10018800F76E000EF86E0900F5CF17F00900F5CFED
:1001980018F00900F5CF19F01C901C9200015EEFD1
:1001A80000F0F28C000E816E000E936E0F0EC16E81
:1001B800E2EC00F0EFEC00F0F28E1200D59AD58E4A
:1001C800000ED76E060ED66EF294F28AD596D594A6
:1001D800D592D580120094500F09946E1200010038
:0101E8000115
:00000001FF
