:04000000A4EF16F063
:102D180094500F09946E12009BEC16F08CEC16F090
:022D2800120097
:102D2B00E721CB6B2D6EEE23EF6F01000E956E92AC
:102D3B0050F00B926E8050F00B806E1200236A22C3
:102D4B006A216A206A2B0EF66E2D0EF76E000EF8B6
:102D5B006E00EE15F010EE0BF00900F5CFEEFFE56F
:102D6B0050E150FAE100014FEF17F0016E0104D86A
:102D7B00A415D082500F0B0F0AD8B408D01F50D80F
:102D8B00B405D0000E1F6E82500F0B120082500F35
:102D9B000B0F0AD8A406D0010E1F6E03D00150D81A
:102DAB00B4F2D7FF0E12000A500B10D8B418D00192
:102DBB000E0C6E04D0D8900A360B360C2A0BAEFADA
:102DCB00D70A50085C0B500958D8A004D00A5008F9
:102DDB005E0B50095AD8900B320A320C2EF1D708E1
:102DEB00C008F009C009F01200000E066E000E05B7
:102DFB006E03500410D8B41CD0010E076E04D0D84B
:102E0B009003360436072A04AEFAD7D89005360657
:102E1B00360350015C04500258D8A005D003500172
:102E2B005E0450025A0580D89004320332072EED0F
:102E3B00D705C001F006C002F01200000E076E03AA
:102E4B000E076401D012000750010DF3500124D975
:102E5B006EF4500220DA6EDF50836E07C003F00170
:102E6B000E046E032A02D0D8900436032EFCD780B2
:102E7B0050F00B0410806E030E066EE80E056E0507
:102E8B0006D8A006060528FBE10628D8A4F8D70724
:102E9B002AD6D790EC16F0000E146E000E136E00AF
:102EAB000E0E6E000E0D6E000E106E000E0F6E00ED
:102EBB000E126E000E116E000EBBEC16F00E0AD841
:102ECB00A413D0114A122AC80E11181210D8A40834
:102EDB00D01106D8A01206000E146E000E136E0A47
:102EEB00D0000E106E010E09D00F501010D8B40781
:102EFB00D0134A142A000E106E000E0F6E04D00071
:102F0B000E126E000E116E100E135C270E1458D895
:102F1B00A004D0000E146E000E136E13C008F01434
:102F2B00C009F0000E0B6E0A0E0A6ED9EC16F015E6
:102F3B000E0824D96E000E0920DA6EDF50236E00C6
:102F4B000E046E0A0E036E13C001F014C002F0FAE9
:102F5B00EC16F001C008F002C009F0000E0B6E0A6F
:102F6B000E0A6ED9EC16F0150E0824D96E000E0958
:102F7B0020DA6EDF50226E000E046E640E036E13A9
:102F8B00C001F014C002F0FAEC16F001C008F00218
:102F9B00C009F0000E0B6E0A0E0A6ED9EC16F01576
:102FAB000E0824D96E000E0920DA6EDF50216E0355
:102FBB000E046EE80E036E13C001F014C002F0FA9B
:102FCB00EC16F001C008F002C009F0000E0B6E0AFF
:102FDB000E0A6ED9EC16F0150E0824D96E000E09E8
:102FEB0020DA6EDF50206E200E016E000E026E2373
:052FFB00EC17F061D7A6
:00000001FF
