:040000000CEF17F0FA
:102DAC00E0EC16F0E9EC16F01200E721CB6B2D6E7F
:102DBC00EE23EF6F000E956E9250F00B926E8050DA
:102DCC00F00B806E1200C08EC09AC088C096C09066
:102DDC00C082C094C292C19AC198000EC46E000EFB
:102DEC00C36EC280120008500A02F3CF0CF0F4CF6D
:102DFC000DF008500B02F3500D2609500A02F35047
:102E0C000D260CC008F00DC009F012001E6A1D6AD8
:102E1C001C6A1B6AB60EF66E2D0EF76E000EF86E5F
:102E2C0000EE11F010EE0AF00900F5CFEEFFE550C0
:102E3C00E150FAE10001B7EF17F0076E07C003F09D
:102E4C00D8900336D8900336C250C30B0310C26E11
:102E5C00C282C2B2FED7C350C4CF03F0046A03C00F
:102E6C0004F0036A0310056E0450066E05C001F0F1
:102E7C0006C002F0120003500410D8B418D0010E92
:102E8C00056E04D0D89003360436052A04AEFAD762
:102E9C000350015C04500258D8A004D00350015ECA
:102EAC000450025AD89004320332052EF1D701C0D7
:102EBC0001F002C002F01200000E066E000E056E4C
:102ECC0003500410D8B41CD0010E076E04D0D89057
:102EDC0003360436072A04AEFAD7D89005360636E0
:102EEC000350015C04500258D8A005D00350015E79
:102EFC000450025A0580D89004320332072EEDD7C5
:102F0C0005C001F006C002F01200000E076E030EA1
:102F1C00076401D012000750010DF3500124D96E43
:102F2C00F4500220DA6EDF50836E07C003F0010EFE
:102F3C00046E032A02D0D8900436032EFCD780509E
:102F4C00F00B0410806E030E066EE80E056E05067F
:102F5C00D8A006060528FBE10628D8A4F8D7072A2E
:102F6C00D6D7D6EC16F0060E23EC17F001C008F0FD
:102F7C0002C009F0010E0B6EF40E0A6EF9EC16F09D
:102F8C0008C00FF009C010F00A0E0E6ED890103267
:102F9C000F320E2EFBD70FC001F010C002F0000E46
:102FAC00046E0A0E036E41EC17F0110E0124D96E5B
:102FBC00000E0220DA6EDF501C6E0FC001F010C044
:102FCC0002F0000E046E0A0E036E62EC17F0110E86
:102FDC000124D96E000E0220DA6EDF501B6E100E2B
:102FEC001D6EC60E1E6E1B0E016E000E026E8BEC5D
:042FFC0017F0B9D73A
:00000001FF
